{
  "abi": [
    {
      "anonymous": false,
      "inputs": [
        {
          "indexed": false,
          "internalType": "address",
          "name": "previousAdmin",
          "type": "address"
        },
        {
          "indexed": false,
          "internalType": "address",
          "name": "newAdmin",
          "type": "address"
        }
      ],
      "name": "AdminChanged",
      "type": "event"
    },
    {
      "anonymous": false,
      "inputs": [
        {
          "indexed": true,
          "internalType": "address",
          "name": "beacon",
          "type": "address"
        }
      ],
      "name": "BeaconUpgraded",
      "type": "event"
    },
    {
      "anonymous": false,
      "inputs": [
        {
          "indexed": false,
          "internalType": "uint8",
          "name": "version",
          "type": "uint8"
        }
      ],
      "name": "Initialized",
      "type": "event"
    },
    {
      "anonymous": false,
      "inputs": [
        {
          "indexed": true,
          "internalType": "address",
          "name": "previousOwner",
          "type": "address"
        },
        {
          "indexed": true,
          "internalType": "address",
          "name": "newOwner",
          "type": "address"
        }
      ],
      "name": "OwnershipTransferred",
      "type": "event"
    },
    {
      "anonymous": false,
      "inputs": [
        {
          "indexed": true,
          "internalType": "address",
          "name": "implementation",
          "type": "address"
        }
      ],
      "name": "Upgraded",
      "type": "event"
    },
    {
      "inputs": [],
      "name": "eatSlice",
      "outputs": [],
      "stateMutability": "nonpayable",
      "type": "function"
    },
    {
      "inputs": [
        {
          "internalType": "uint256",
          "name": "_sliceCount",
          "type": "uint256"
        }
      ],
      "name": "initialize",
      "outputs": [],
      "stateMutability": "nonpayable",
      "type": "function"
    },
    {
      "inputs": [],
      "name": "owner",
      "outputs": [
        {
          "internalType": "address",
          "name": "",
          "type": "address"
        }
      ],
      "stateMutability": "view",
      "type": "function"
    },
    {
      "inputs": [],
      "name": "pizzaVersion",
      "outputs": [
        {
          "internalType": "uint256",
          "name": "",
          "type": "uint256"
        }
      ],
      "stateMutability": "pure",
      "type": "function"
    },
    {
      "inputs": [],
      "name": "proxiableUUID",
      "outputs": [
        {
          "internalType": "bytes32",
          "name": "",
          "type": "bytes32"
        }
      ],
      "stateMutability": "view",
      "type": "function"
    },
    {
      "inputs": [],
      "name": "refillSlice",
      "outputs": [],
      "stateMutability": "nonpayable",
      "type": "function"
    },
    {
      "inputs": [],
      "name": "renounceOwnership",
      "outputs": [],
      "stateMutability": "nonpayable",
      "type": "function"
    },
    {
      "inputs": [],
      "name": "slices",
      "outputs": [
        {
          "internalType": "uint256",
          "name": "",
          "type": "uint256"
        }
      ],
      "stateMutability": "view",
      "type": "function"
    },
    {
      "inputs": [
        {
          "internalType": "address",
          "name": "newOwner",
          "type": "address"
        }
      ],
      "name": "transferOwnership",
      "outputs": [],
      "stateMutability": "nonpayable",
      "type": "function"
    },
    {
      "inputs": [
        {
          "internalType": "address",
          "name": "newImplementation",
          "type": "address"
        }
      ],
      "name": "upgradeTo",
      "outputs": [],
      "stateMutability": "nonpayable",
      "type": "function"
    },
    {
      "inputs": [
        {
          "internalType": "address",
          "name": "newImplementation",
          "type": "address"
        },
        {
          "internalType": "bytes",
          "name": "data",
          "type": "bytes"
        }
      ],
      "name": "upgradeToAndCall",
      "outputs": [],
      "stateMutability": "payable",
      "type": "function"
    }
  ],
  "bytecode": {
    "object": "0x60a06040523060805234801561001457600080fd5b50608051610e6f61004c6000396000818161023b0152818161027b0152818161031a0152818161035a01526103ed0152610e6f6000f3fe60806040526004361061009c5760003560e01c80638da5cb5b116100645780638da5cb5b14610128578063a63b6cde14610150578063f2fde38b14610166578063f63da92e14610186578063f64d99781461019b578063fe4b84df146101af57600080fd5b806308329585146100a15780633659cfe6146100b85780634f1ef286146100d857806352d1902d146100eb578063715018a614610113575b600080fd5b3480156100ad57600080fd5b506100b66101cf565b005b3480156100c457600080fd5b506100b66100d3366004610b2a565b610231565b6100b66100e6366004610b5b565b610310565b3480156100f757600080fd5b506101006103e0565b6040519081526020015b60405180910390f35b34801561011f57600080fd5b506100b6610493565b34801561013457600080fd5b506097546040516001600160a01b03909116815260200161010a565b34801561015c57600080fd5b5061010060c95481565b34801561017257600080fd5b506100b6610181366004610b2a565b6104a7565b34801561019257600080fd5b506100b661051d565b3480156101a757600080fd5b506002610100565b3480156101bb57600080fd5b506100b66101ca366004610c1d565b610530565b600160c954116102175760405162461bcd60e51b815260206004820152600e60248201526d1b9bc81cdb1a58d95cc81b19599d60921b60448201526064015b60405180910390fd5b600160c9600082825461022a9190610c4c565b9091555050565b6001600160a01b037f00000000000000000000000000000000000000000000000000000000000000001630036102795760405162461bcd60e51b815260040161020e90610c63565b7f00000000000000000000000000000000000000000000000000000000000000006001600160a01b03166102c2600080516020610df3833981519152546001600160a01b031690565b6001600160a01b0316146102e85760405162461bcd60e51b815260040161020e90610caf565b6102f181610646565b6040805160008082526020820190925261030d9183919061064e565b50565b6001600160a01b037f00000000000000000000000000000000000000000000000000000000000000001630036103585760405162461bcd60e51b815260040161020e90610c63565b7f00000000000000000000000000000000000000000000000000000000000000006001600160a01b03166103a1600080516020610df3833981519152546001600160a01b031690565b6001600160a01b0316146103c75760405162461bcd60e51b815260040161020e90610caf565b6103d082610646565b6103dc8282600161064e565b5050565b6000306001600160a01b037f000000000000000000000000000000000000000000000000000000000000000016146104805760405162461bcd60e51b815260206004820152603860248201527f555550535570677261646561626c653a206d757374206e6f742062652063616c60448201527f6c6564207468726f7567682064656c656761746563616c6c0000000000000000606482015260840161020e565b50600080516020610df383398151915290565b61049b6107be565b6104a56000610818565b565b6104af6107be565b6001600160a01b0381166105145760405162461bcd60e51b815260206004820152602660248201527f4f776e61626c653a206e6577206f776e657220697320746865207a65726f206160448201526564647265737360d01b606482015260840161020e565b61030d81610818565b600160c9600082825461022a9190610cfb565b600054610100900460ff16158080156105505750600054600160ff909116105b8061056a5750303b15801561056a575060005460ff166001145b6105cd5760405162461bcd60e51b815260206004820152602e60248201527f496e697469616c697a61626c653a20636f6e747261637420697320616c72656160448201526d191e481a5b9a5d1a585b1a5e995960921b606482015260840161020e565b6000805460ff1916600117905580156105f0576000805461ff0019166101001790555b60c98290556105fd61086a565b80156103dc576000805461ff0019169055604051600181527f7f26b83ff96e1f2b6a682f133852f6798a09c465da95921460cefb38474024989060200160405180910390a15050565b61030d6107be565b7f4910fdfa16fed3260ed0e7147f7cc6da11a60208b5b9406d12a635614ffd91435460ff16156106865761068183610899565b505050565b826001600160a01b03166352d1902d6040518163ffffffff1660e01b8152600401602060405180830381865afa9250505080156106e0575060408051601f3d908101601f191682019092526106dd91810190610d13565b60015b6107435760405162461bcd60e51b815260206004820152602e60248201527f45524331393637557067726164653a206e657720696d706c656d656e7461746960448201526d6f6e206973206e6f74205555505360901b606482015260840161020e565b600080516020610df383398151915281146107b25760405162461bcd60e51b815260206004820152602960248201527f45524331393637557067726164653a20756e737570706f727465642070726f786044820152681a58589b195555525160ba1b606482015260840161020e565b50610681838383610935565b6097546001600160a01b031633146104a55760405162461bcd60e51b815260206004820181905260248201527f4f776e61626c653a2063616c6c6572206973206e6f7420746865206f776e6572604482015260640161020e565b609780546001600160a01b038381166001600160a01b0319831681179093556040519116919082907f8be0079c531659141344cd1fd0a4f28419497f9722a3daafe3b4186f6b6457e090600090a35050565b600054610100900460ff166108915760405162461bcd60e51b815260040161020e90610d2c565b6104a5610960565b6001600160a01b0381163b6109065760405162461bcd60e51b815260206004820152602d60248201527f455243313936373a206e657720696d706c656d656e746174696f6e206973206e60448201526c1bdd08184818dbdb9d1c9858dd609a1b606482015260840161020e565b600080516020610df383398151915280546001600160a01b0319166001600160a01b0392909216919091179055565b61093e83610990565b60008251118061094b5750805b156106815761095a83836109d0565b50505050565b600054610100900460ff166109875760405162461bcd60e51b815260040161020e90610d2c565b6104a533610818565b61099981610899565b6040516001600160a01b038216907fbc7cd75a20ee27fd9adebab32041f755214dbc6bffa90cc0225b39da2e5c2d3b90600090a250565b60606001600160a01b0383163b610a385760405162461bcd60e51b815260206004820152602660248201527f416464726573733a2064656c65676174652063616c6c20746f206e6f6e2d636f6044820152651b9d1c9858dd60d21b606482015260840161020e565b600080846001600160a01b031684604051610a539190610da3565b600060405180830381855af49150503d8060008114610a8e576040519150601f19603f3d011682016040523d82523d6000602084013e610a93565b606091505b5091509150610abb8282604051806060016040528060278152602001610e1360279139610ac4565b95945050505050565b60608315610ad3575081610add565b610add8383610ae4565b9392505050565b815115610af45781518083602001fd5b8060405162461bcd60e51b815260040161020e9190610dbf565b80356001600160a01b0381168114610b2557600080fd5b919050565b600060208284031215610b3c57600080fd5b610add82610b0e565b634e487b7160e01b600052604160045260246000fd5b60008060408385031215610b6e57600080fd5b610b7783610b0e565b9150602083013567ffffffffffffffff80821115610b9457600080fd5b818501915085601f830112610ba857600080fd5b813581811115610bba57610bba610b45565b604051601f8201601f19908116603f01168101908382118183101715610be257610be2610b45565b81604052828152886020848701011115610bfb57600080fd5b8260208601602083013760006020848301015280955050505050509250929050565b600060208284031215610c2f57600080fd5b5035919050565b634e487b7160e01b600052601160045260246000fd5b600082821015610c5e57610c5e610c36565b500390565b6020808252602c908201527f46756e6374696f6e206d7573742062652063616c6c6564207468726f7567682060408201526b19195b1959d85d1958d85b1b60a21b606082015260800190565b6020808252602c908201527f46756e6374696f6e206d7573742062652063616c6c6564207468726f7567682060408201526b6163746976652070726f787960a01b606082015260800190565b60008219821115610d0e57610d0e610c36565b500190565b600060208284031215610d2557600080fd5b5051919050565b6020808252602b908201527f496e697469616c697a61626c653a20636f6e7472616374206973206e6f74206960408201526a6e697469616c697a696e6760a81b606082015260800190565b60005b83811015610d92578181015183820152602001610d7a565b8381111561095a5750506000910152565b60008251610db5818460208701610d77565b9190910192915050565b6020815260008251806020840152610dde816040850160208701610d77565b601f01601f1916919091016040019291505056fe360894a13ba1a3210667c828492db98dca3e2076cc3735a920a3ca505d382bbc416464726573733a206c6f772d6c6576656c2064656c65676174652063616c6c206661696c6564a26469706673582212204caec549b1f3fcfa40517afb28d7e5f9a285f1c27ca94ac223cad9076a94bd0e64736f6c634300080f0033",
    "linkReferences": {}
  },
  "methodIdentifiers": {
    "eatSlice()": "08329585",
    "initialize(uint256)": "fe4b84df",
    "owner()": "8da5cb5b",
    "pizzaVersion()": "f64d9978",
    "proxiableUUID()": "52d1902d",
    "refillSlice()": "f63da92e",
    "renounceOwnership()": "715018a6",
    "slices()": "a63b6cde",
    "transferOwnership(address)": "f2fde38b",
    "upgradeTo(address)": "3659cfe6",
    "upgradeToAndCall(address,bytes)": "4f1ef286"
  },
  "id": 25
}