{
  "abi": [
    {
      "inputs": [],
      "name": "count",
      "outputs": [
        {
          "internalType": "uint256",
          "name": "",
          "type": "uint256"
        }
      ],
      "stateMutability": "view",
      "type": "function"
    },
    {
      "inputs": [],
      "name": "increment",
      "outputs": [],
      "stateMutability": "nonpayable",
      "type": "function"
    },
    {
      "inputs": [],
      "name": "initialize",
      "outputs": [],
      "stateMutability": "nonpayable",
      "type": "function"
    },
    {
      "inputs": [],
      "name": "initialized",
      "outputs": [
        {
          "internalType": "bool",
          "name": "",
          "type": "bool"
        }
      ],
      "stateMutability": "view",
      "type": "function"
    },
    {
      "inputs": [],
      "name": "owner",
      "outputs": [
        {
          "internalType": "address",
          "name": "",
          "type": "address"
        }
      ],
      "stateMutability": "view",
      "type": "function"
    },
    {
      "inputs": [],
      "name": "proxiableUUID",
      "outputs": [
        {
          "internalType": "bytes32",
          "name": "",
          "type": "bytes32"
        }
      ],
      "stateMutability": "pure",
      "type": "function"
    },
    {
      "inputs": [
        {
          "internalType": "address",
          "name": "newCode",
          "type": "address"
        }
      ],
      "name": "updateCode",
      "outputs": [],
      "stateMutability": "nonpayable",
      "type": "function"
    }
  ],
  "bytecode": {
    "object": "0x60806040526002805460ff1916905534801561001a57600080fd5b506103e48061002a6000396000f3fe608060405234801561001057600080fd5b506004361061007d5760003560e01c806352d1902d1161005b57806352d1902d146100d05780638129fc1c146100f65780638da5cb5b146100fe578063d09de08a1461012957600080fd5b806306661abd14610082578063158ef93e1461009e57806346951954146100bb575b600080fd5b61008b60015481565b6040519081526020015b60405180910390f35b6002546100ab9060ff1681565b6040519015158152602001610095565b6100ce6100c936600461033e565b610131565b005b7fc5f16f0fcc639fa48a6947836d9850f504798523bf8c9a3a87d5876cf622bcf761008b565b6100ce610189565b600054610111906001600160a01b031681565b6040516001600160a01b039091168152602001610095565b6100ce610242565b6000546001600160a01b0316331461017d5760405162461bcd60e51b815260206004820152600a60248201526927b7363c9037bbb732b960b11b60448201526064015b60405180910390fd5b61018681610259565b50565b6000546001600160a01b0316156101d85760405162461bcd60e51b8152602060048201526013602482015272105b1c9958591e481a5b9a5d1a585b1a5e9959606a1b6044820152606401610174565b60025460ff16156102215760405162461bcd60e51b8152602060048201526013602482015272105b1c9958591e481a5b9a5d1a585b1a5e9959606a1b6044820152606401610174565b600080546001600160a01b031916331790556002805460ff19166001179055565b600180549060006102528361036e565b9190505550565b806001600160a01b03166352d1902d6040518163ffffffff1660e01b8152600401602060405180830381865afa158015610297573d6000803e3d6000fd5b505050506040513d601f19601f820116820180604052508101906102bb9190610395565b7fc5f16f0fcc639fa48a6947836d9850f504798523bf8c9a3a87d5876cf622bcf71461031a5760405162461bcd60e51b815260206004820152600e60248201526d4e6f7420436f6d70617469626c6560901b6044820152606401610174565b7fc5f16f0fcc639fa48a6947836d9850f504798523bf8c9a3a87d5876cf622bcf755565b60006020828403121561035057600080fd5b81356001600160a01b038116811461036757600080fd5b9392505050565b60006001820161038e57634e487b7160e01b600052601160045260246000fd5b5060010190565b6000602082840312156103a757600080fd5b505191905056fea26469706673582212208e09b8994caa9e717682dd7bcc388cc955d6fd28b8cf1b706a3fcd6a4b5b27a664736f6c634300080f0033",
    "linkReferences": {}
  },
  "methodIdentifiers": {
    "count()": "06661abd",
    "increment()": "d09de08a",
    "initialize()": "8129fc1c",
    "initialized()": "158ef93e",
    "owner()": "8da5cb5b",
    "proxiableUUID()": "52d1902d",
    "updateCode(address)": "46951954"
  },
  "id": 0
}