{
  "abi": [
    {
      "anonymous": false,
      "inputs": [
        {
          "indexed": false,
          "internalType": "address",
          "name": "previousAdmin",
          "type": "address"
        },
        {
          "indexed": false,
          "internalType": "address",
          "name": "newAdmin",
          "type": "address"
        }
      ],
      "name": "AdminChanged",
      "type": "event"
    },
    {
      "anonymous": false,
      "inputs": [
        {
          "indexed": true,
          "internalType": "address",
          "name": "beacon",
          "type": "address"
        }
      ],
      "name": "BeaconUpgraded",
      "type": "event"
    },
    {
      "anonymous": false,
      "inputs": [
        {
          "indexed": false,
          "internalType": "uint8",
          "name": "version",
          "type": "uint8"
        }
      ],
      "name": "Initialized",
      "type": "event"
    },
    {
      "anonymous": false,
      "inputs": [
        {
          "indexed": true,
          "internalType": "address",
          "name": "previousOwner",
          "type": "address"
        },
        {
          "indexed": true,
          "internalType": "address",
          "name": "newOwner",
          "type": "address"
        }
      ],
      "name": "OwnershipTransferred",
      "type": "event"
    },
    {
      "anonymous": false,
      "inputs": [
        {
          "indexed": true,
          "internalType": "address",
          "name": "implementation",
          "type": "address"
        }
      ],
      "name": "Upgraded",
      "type": "event"
    },
    {
      "inputs": [],
      "name": "eatSlice",
      "outputs": [],
      "stateMutability": "nonpayable",
      "type": "function"
    },
    {
      "inputs": [
        {
          "internalType": "uint256",
          "name": "_sliceCount",
          "type": "uint256"
        }
      ],
      "name": "initialize",
      "outputs": [],
      "stateMutability": "nonpayable",
      "type": "function"
    },
    {
      "inputs": [],
      "name": "owner",
      "outputs": [
        {
          "internalType": "address",
          "name": "",
          "type": "address"
        }
      ],
      "stateMutability": "view",
      "type": "function"
    },
    {
      "inputs": [],
      "name": "proxiableUUID",
      "outputs": [
        {
          "internalType": "bytes32",
          "name": "",
          "type": "bytes32"
        }
      ],
      "stateMutability": "view",
      "type": "function"
    },
    {
      "inputs": [],
      "name": "renounceOwnership",
      "outputs": [],
      "stateMutability": "nonpayable",
      "type": "function"
    },
    {
      "inputs": [],
      "name": "slices",
      "outputs": [
        {
          "internalType": "uint256",
          "name": "",
          "type": "uint256"
        }
      ],
      "stateMutability": "view",
      "type": "function"
    },
    {
      "inputs": [
        {
          "internalType": "address",
          "name": "newOwner",
          "type": "address"
        }
      ],
      "name": "transferOwnership",
      "outputs": [],
      "stateMutability": "nonpayable",
      "type": "function"
    },
    {
      "inputs": [
        {
          "internalType": "address",
          "name": "newImplementation",
          "type": "address"
        }
      ],
      "name": "upgradeTo",
      "outputs": [],
      "stateMutability": "nonpayable",
      "type": "function"
    },
    {
      "inputs": [
        {
          "internalType": "address",
          "name": "newImplementation",
          "type": "address"
        },
        {
          "internalType": "bytes",
          "name": "data",
          "type": "bytes"
        }
      ],
      "name": "upgradeToAndCall",
      "outputs": [],
      "stateMutability": "payable",
      "type": "function"
    }
  ],
  "bytecode": {
    "object": "0x60a06040523060805234801561001457600080fd5b50608051610dfd61004c600039600081816101fc0152818161023c015281816102db0152818161031b01526103ae0152610dfd6000f3fe6080604052600436106100865760003560e01c8063715018a611610059578063715018a6146100fd5780638da5cb5b14610112578063a63b6cde1461013a578063f2fde38b14610150578063fe4b84df1461017057600080fd5b8063083295851461008b5780633659cfe6146100a25780634f1ef286146100c257806352d1902d146100d5575b600080fd5b34801561009757600080fd5b506100a0610190565b005b3480156100ae57600080fd5b506100a06100bd366004610ad8565b6101f2565b6100a06100d0366004610b09565b6102d1565b3480156100e157600080fd5b506100ea6103a1565b6040519081526020015b60405180910390f35b34801561010957600080fd5b506100a0610454565b34801561011e57600080fd5b506097546040516001600160a01b0390911681526020016100f4565b34801561014657600080fd5b506100ea60c95481565b34801561015c57600080fd5b506100a061016b366004610ad8565b610468565b34801561017c57600080fd5b506100a061018b366004610bcb565b6104de565b600160c954116101d85760405162461bcd60e51b815260206004820152600e60248201526d1b9bc81cdb1a58d95cc81b19599d60921b60448201526064015b60405180910390fd5b600160c960008282546101eb9190610be4565b9091555050565b6001600160a01b037f000000000000000000000000000000000000000000000000000000000000000016300361023a5760405162461bcd60e51b81526004016101cf90610c09565b7f00000000000000000000000000000000000000000000000000000000000000006001600160a01b0316610283600080516020610d81833981519152546001600160a01b031690565b6001600160a01b0316146102a95760405162461bcd60e51b81526004016101cf90610c55565b6102b2816105f4565b604080516000808252602082019092526102ce918391906105fc565b50565b6001600160a01b037f00000000000000000000000000000000000000000000000000000000000000001630036103195760405162461bcd60e51b81526004016101cf90610c09565b7f00000000000000000000000000000000000000000000000000000000000000006001600160a01b0316610362600080516020610d81833981519152546001600160a01b031690565b6001600160a01b0316146103885760405162461bcd60e51b81526004016101cf90610c55565b610391826105f4565b61039d828260016105fc565b5050565b6000306001600160a01b037f000000000000000000000000000000000000000000000000000000000000000016146104415760405162461bcd60e51b815260206004820152603860248201527f555550535570677261646561626c653a206d757374206e6f742062652063616c60448201527f6c6564207468726f7567682064656c656761746563616c6c000000000000000060648201526084016101cf565b50600080516020610d8183398151915290565b61045c61076c565b61046660006107c6565b565b61047061076c565b6001600160a01b0381166104d55760405162461bcd60e51b815260206004820152602660248201527f4f776e61626c653a206e6577206f776e657220697320746865207a65726f206160448201526564647265737360d01b60648201526084016101cf565b6102ce816107c6565b600054610100900460ff16158080156104fe5750600054600160ff909116105b806105185750303b158015610518575060005460ff166001145b61057b5760405162461bcd60e51b815260206004820152602e60248201527f496e697469616c697a61626c653a20636f6e747261637420697320616c72656160448201526d191e481a5b9a5d1a585b1a5e995960921b60648201526084016101cf565b6000805460ff19166001179055801561059e576000805461ff0019166101001790555b60c98290556105ab610818565b801561039d576000805461ff0019169055604051600181527f7f26b83ff96e1f2b6a682f133852f6798a09c465da95921460cefb38474024989060200160405180910390a15050565b6102ce61076c565b7f4910fdfa16fed3260ed0e7147f7cc6da11a60208b5b9406d12a635614ffd91435460ff16156106345761062f83610847565b505050565b826001600160a01b03166352d1902d6040518163ffffffff1660e01b8152600401602060405180830381865afa92505050801561068e575060408051601f3d908101601f1916820190925261068b91810190610ca1565b60015b6106f15760405162461bcd60e51b815260206004820152602e60248201527f45524331393637557067726164653a206e657720696d706c656d656e7461746960448201526d6f6e206973206e6f74205555505360901b60648201526084016101cf565b600080516020610d8183398151915281146107605760405162461bcd60e51b815260206004820152602960248201527f45524331393637557067726164653a20756e737570706f727465642070726f786044820152681a58589b195555525160ba1b60648201526084016101cf565b5061062f8383836108e3565b6097546001600160a01b031633146104665760405162461bcd60e51b815260206004820181905260248201527f4f776e61626c653a2063616c6c6572206973206e6f7420746865206f776e657260448201526064016101cf565b609780546001600160a01b038381166001600160a01b0319831681179093556040519116919082907f8be0079c531659141344cd1fd0a4f28419497f9722a3daafe3b4186f6b6457e090600090a35050565b600054610100900460ff1661083f5760405162461bcd60e51b81526004016101cf90610cba565b61046661090e565b6001600160a01b0381163b6108b45760405162461bcd60e51b815260206004820152602d60248201527f455243313936373a206e657720696d706c656d656e746174696f6e206973206e60448201526c1bdd08184818dbdb9d1c9858dd609a1b60648201526084016101cf565b600080516020610d8183398151915280546001600160a01b0319166001600160a01b0392909216919091179055565b6108ec8361093e565b6000825111806108f95750805b1561062f57610908838361097e565b50505050565b600054610100900460ff166109355760405162461bcd60e51b81526004016101cf90610cba565b610466336107c6565b61094781610847565b6040516001600160a01b038216907fbc7cd75a20ee27fd9adebab32041f755214dbc6bffa90cc0225b39da2e5c2d3b90600090a250565b60606001600160a01b0383163b6109e65760405162461bcd60e51b815260206004820152602660248201527f416464726573733a2064656c65676174652063616c6c20746f206e6f6e2d636f6044820152651b9d1c9858dd60d21b60648201526084016101cf565b600080846001600160a01b031684604051610a019190610d31565b600060405180830381855af49150503d8060008114610a3c576040519150601f19603f3d011682016040523d82523d6000602084013e610a41565b606091505b5091509150610a698282604051806060016040528060278152602001610da160279139610a72565b95945050505050565b60608315610a81575081610a8b565b610a8b8383610a92565b9392505050565b815115610aa25781518083602001fd5b8060405162461bcd60e51b81526004016101cf9190610d4d565b80356001600160a01b0381168114610ad357600080fd5b919050565b600060208284031215610aea57600080fd5b610a8b82610abc565b634e487b7160e01b600052604160045260246000fd5b60008060408385031215610b1c57600080fd5b610b2583610abc565b9150602083013567ffffffffffffffff80821115610b4257600080fd5b818501915085601f830112610b5657600080fd5b813581811115610b6857610b68610af3565b604051601f8201601f19908116603f01168101908382118183101715610b9057610b90610af3565b81604052828152886020848701011115610ba957600080fd5b8260208601602083013760006020848301015280955050505050509250929050565b600060208284031215610bdd57600080fd5b5035919050565b600082821015610c0457634e487b7160e01b600052601160045260246000fd5b500390565b6020808252602c908201527f46756e6374696f6e206d7573742062652063616c6c6564207468726f7567682060408201526b19195b1959d85d1958d85b1b60a21b606082015260800190565b6020808252602c908201527f46756e6374696f6e206d7573742062652063616c6c6564207468726f7567682060408201526b6163746976652070726f787960a01b606082015260800190565b600060208284031215610cb357600080fd5b5051919050565b6020808252602b908201527f496e697469616c697a61626c653a20636f6e7472616374206973206e6f74206960408201526a6e697469616c697a696e6760a81b606082015260800190565b60005b83811015610d20578181015183820152602001610d08565b838111156109085750506000910152565b60008251610d43818460208701610d05565b9190910192915050565b6020815260008251806020840152610d6c816040850160208701610d05565b601f01601f1916919091016040019291505056fe360894a13ba1a3210667c828492db98dca3e2076cc3735a920a3ca505d382bbc416464726573733a206c6f772d6c6576656c2064656c65676174652063616c6c206661696c6564a26469706673582212208decdbe3d42cf2f1562849d684b7f250faeeaadf964fe1536f5785c34ab778a264736f6c634300080f0033",
    "linkReferences": {}
  },
  "methodIdentifiers": {
    "eatSlice()": "08329585",
    "initialize(uint256)": "fe4b84df",
    "owner()": "8da5cb5b",
    "proxiableUUID()": "52d1902d",
    "renounceOwnership()": "715018a6",
    "slices()": "a63b6cde",
    "transferOwnership(address)": "f2fde38b",
    "upgradeTo(address)": "3659cfe6",
    "upgradeToAndCall(address,bytes)": "4f1ef286"
  },
  "id": 24
}